:100000000C9461000C947E000C947E000C947E0095
:100010000C947E000C947E000C947E000C947E0068
:100020000C947E000C947E000C947E000C947E0058
:100030000C947E000C947E000C947E000C947E0048
:100040000C94F8000C947E000C947E000C947E00BE
:100050000C947E000C947E000C947E000C947E0028
:100060000C947E000C947E00000000002400270009
:100070002A000000000023002600290000000000E4
:10008000250028002B0004040404040404040202D4
:100090000202020203030303030301020408102007
:1000A0004080010204081020010204081020000012
:1000B0000008000201000003040700000000000027
:1000C000000011241FBECFEFD8E0DEBFCDBF11E08E
:1000D000A0E0B1E0EAE4F5E002C005900D92A8309E
:1000E000B107D9F721E0A8E0B1E001C01D92AB3122
:1000F000B207E1F70E9442010C94A3020C940000A5
:10010000833081F028F4813099F08230A9F008958D
:100110008730A9F08830C9F08430B1F48091800034
:100120008F7D03C0809180008F7780938000089539
:1001300084B58F7784BD089584B58F7DFBCF809182
:10014000B0008F778093B00008958091B0008F7DCC
:10015000F9CF1F93CF93DF93EBEBF0E09491E7EAB5
:10016000F0E0D491E3E9F0E0C491CC23B9F0182F8A
:10017000992319F0892F0E948000EC2FF0E0EE0FF8
:10018000FF1FE458FF4FA591B4918FB7F894EC91FD
:10019000111108C0D095DE23DC938FBFDF91CF9182
:1001A0001F910895DE2BF8CFCF93DF93E5EBF0E0BE
:1001B0008491E1EAF0E0D491EDE8F0E0C491CC2341
:1001C000A1F081110E948000EC2FF0E0EE0FFF1FE4
:1001D000EE58FF4FA591B491EC91ED2381E090E0B2
:1001E00009F480E0DF91CF91089580E090E0FACFAC
:1001F0001F920F920FB60F9211242F933F938F935C
:100200009F93AF93BF9380910D0190910E01A091A8
:100210000F01B091100130910C0123E0230F2D3715
:1002200058F50196A11DB11D20930C0180930D017D
:1002300090930E01A0930F01B093100180910801DB
:1002400090910901A0910A01B0910B010196A11DA5
:10025000B11D8093080190930901A0930A01B09306
:100260000B01BF91AF919F918F913F912F910F9073
:100270000FBE0F901F90189526E8230F0296A11D20
:10028000B11DD2CF789484B5826084BD84B581607D
:1002900084BD85B5826085BD85B5816085BD809151
:1002A0006E00816080936E001092810080918100C9
:1002B00082608093810080918100816080938100C1
:1002C000809180008160809380008091B100846083
:1002D0008093B1008091B00081608093B0008091E4
:1002E0007A00846080937A0080917A0082608093A3
:1002F0007A0080917A00816080937A0080917A0000
:10030000806880937A001092C100E1EAF0E02491C5
:10031000EDE8F0E084918823C1F090E0880F991F08
:10032000FC01E859FF4FC591D491FC01E458FF4FFF
:10033000A591B4919FB7F8948881E22FE0958E2320
:1003400088838C91E823EC939FBFE7EAF0E0249147
:10035000E3E9F0E08491882399F090E0880F991FF9
:10036000FC01E859FF4FA591B491FC01E458FF4FFF
:10037000859194918FB7F894EC91E22BEC938FBF19
:10038000109218011092170110921A01109219017F
:10039000C0E0D0E002E110E02FE0E22EF12C30E2EC
:1003A000C32ED12C4BE1A42EB12C80911901909138
:1003B0001A018F309105F1F08231910509F45FC087
:1003C000892B09F08AC02FB7F89480910D01909184
:1003D0000E01A0910F01B09110012FBF8093110168
:1003E00090931201A0931301B0931401F0921A019B
:1003F000E09219018FB7F89440910D0150910E01D0
:1004000060910F01709110018FBF80911101909147
:100410001201A0911301B0911401481B590B6A0BF2
:100420007B0BE0911501F0911601EE0FFF1FE050DC
:10043000FF4F80819181092E000CAA0BBB0B841702
:100440009507A607B70708F04CC081E00E94A900F5
:100450002FB7F89480910D0190910E01A0910F019A
:10046000B09110012FBF8093110190931201A093BE
:100470001301B093140110931A01009319018FB75F
:10048000F89440910D0150910E0160910F0170910F
:1004900010018FBF8091110190911201A091130161
:1004A000B0911401481B590B6A0B7B0BE0911501AD
:1004B000F0911601EE0FFF1FE050FF4F80819181F8
:1004C000092E000CAA0BBB0B84179507A607B707CC
:1004D00040F480E00E94A90076CF10921A01109299
:1004E000190180911701909118018B31910549F004
:1004F00080329105C9F0892B01F5B0921801A092C4
:1005000017010E94D4000197C1F4809115019091C8
:1005100016018330910559F41092160110921501BD
:10052000D0921801C09217010E94D400E4CF019626
:100530009093160180931501F3CF209709F435CFDE
:0A0540000E94000032CFF894FFCFB4
:08054A00F4012C0164003200F1
:00000001FF
